{
  "_format": "hh-sol-artifact-1",
  "contractName": "QilaNFT",
  "sourceName": "contracts/ERC721.sol",
  "abi": [
    {
      "inputs": [
        {
          "internalType": "string",
          "name": "NFTName",
          "type": "string"
        },
        {
          "internalType": "string",
          "name": "NFTSymbol",
          "type": "string"
        }
      ],
      "stateMutability": "nonpayable",
      "type": "constructor"
    },
    {
      "anonymous": false,
      "inputs": [
        {
          "indexed": true,
          "internalType": "address",
          "name": "owner",
          "type": "address"
        },
        {
          "indexed": true,
          "internalType": "address",
          "name": "approved",
          "type": "address"
        },
        {
          "indexed": true,
          "internalType": "uint256",
          "name": "tokenId",
          "type": "uint256"
        }
      ],
      "name": "Approval",
      "type": "event"
    },
    {
      "anonymous": false,
      "inputs": [
        {
          "indexed": true,
          "internalType": "address",
          "name": "owner",
          "type": "address"
        },
        {
          "indexed": true,
          "internalType": "address",
          "name": "operator",
          "type": "address"
        },
        {
          "indexed": false,
          "internalType": "bool",
          "name": "approved",
          "type": "bool"
        }
      ],
      "name": "ApprovalForAll",
      "type": "event"
    },
    {
      "anonymous": false,
      "inputs": [
        {
          "indexed": false,
          "internalType": "uint256",
          "name": "_fromTokenId",
          "type": "uint256"
        },
        {
          "indexed": false,
          "internalType": "uint256",
          "name": "_toTokenId",
          "type": "uint256"
        }
      ],
      "name": "BatchMetadataUpdate",
      "type": "event"
    },
    {
      "anonymous": false,
      "inputs": [
        {
          "indexed": false,
          "internalType": "uint256",
          "name": "_tokenId",
          "type": "uint256"
        }
      ],
      "name": "MetadataUpdate",
      "type": "event"
    },
    {
      "anonymous": false,
      "inputs": [
        {
          "indexed": true,
          "internalType": "address",
          "name": "from",
          "type": "address"
        },
        {
          "indexed": true,
          "internalType": "address",
          "name": "to",
          "type": "address"
        },
        {
          "indexed": true,
          "internalType": "uint256",
          "name": "tokenId",
          "type": "uint256"
        }
      ],
      "name": "Transfer",
      "type": "event"
    },
    {
      "inputs": [
        {
          "internalType": "address",
          "name": "to",
          "type": "address"
        },
        {
          "internalType": "uint256",
          "name": "tokenId",
          "type": "uint256"
        }
      ],
      "name": "approve",
      "outputs": [],
      "stateMutability": "nonpayable",
      "type": "function"
    },
    {
      "inputs": [
        {
          "internalType": "address",
          "name": "owner",
          "type": "address"
        }
      ],
      "name": "balanceOf",
      "outputs": [
        {
          "internalType": "uint256",
          "name": "",
          "type": "uint256"
        }
      ],
      "stateMutability": "view",
      "type": "function"
    },
    {
      "inputs": [
        {
          "internalType": "uint256",
          "name": "tokenId",
          "type": "uint256"
        }
      ],
      "name": "getApproved",
      "outputs": [
        {
          "internalType": "address",
          "name": "",
          "type": "address"
        }
      ],
      "stateMutability": "view",
      "type": "function"
    },
    {
      "inputs": [
        {
          "internalType": "address",
          "name": "owner",
          "type": "address"
        },
        {
          "internalType": "address",
          "name": "operator",
          "type": "address"
        }
      ],
      "name": "isApprovedForAll",
      "outputs": [
        {
          "internalType": "bool",
          "name": "",
          "type": "bool"
        }
      ],
      "stateMutability": "view",
      "type": "function"
    },
    {
      "inputs": [
        {
          "internalType": "string",
          "name": "tokenURI",
          "type": "string"
        }
      ],
      "name": "mintNFT",
      "outputs": [
        {
          "internalType": "uint256",
          "name": "",
          "type": "uint256"
        }
      ],
      "stateMutability": "nonpayable",
      "type": "function"
    },
    {
      "inputs": [],
      "name": "name",
      "outputs": [
        {
          "internalType": "string",
          "name": "",
          "type": "string"
        }
      ],
      "stateMutability": "view",
      "type": "function"
    },
    {
      "inputs": [
        {
          "internalType": "uint256",
          "name": "tokenId",
          "type": "uint256"
        }
      ],
      "name": "ownerOf",
      "outputs": [
        {
          "internalType": "address",
          "name": "",
          "type": "address"
        }
      ],
      "stateMutability": "view",
      "type": "function"
    },
    {
      "inputs": [
        {
          "internalType": "address",
          "name": "from",
          "type": "address"
        },
        {
          "internalType": "address",
          "name": "to",
          "type": "address"
        },
        {
          "internalType": "uint256",
          "name": "tokenId",
          "type": "uint256"
        }
      ],
      "name": "safeTransferFrom",
      "outputs": [],
      "stateMutability": "nonpayable",
      "type": "function"
    },
    {
      "inputs": [
        {
          "internalType": "address",
          "name": "from",
          "type": "address"
        },
        {
          "internalType": "address",
          "name": "to",
          "type": "address"
        },
        {
          "internalType": "uint256",
          "name": "tokenId",
          "type": "uint256"
        },
        {
          "internalType": "bytes",
          "name": "data",
          "type": "bytes"
        }
      ],
      "name": "safeTransferFrom",
      "outputs": [],
      "stateMutability": "nonpayable",
      "type": "function"
    },
    {
      "inputs": [
        {
          "internalType": "address",
          "name": "operator",
          "type": "address"
        },
        {
          "internalType": "bool",
          "name": "approved",
          "type": "bool"
        }
      ],
      "name": "setApprovalForAll",
      "outputs": [],
      "stateMutability": "nonpayable",
      "type": "function"
    },
    {
      "inputs": [
        {
          "internalType": "bytes4",
          "name": "interfaceId",
          "type": "bytes4"
        }
      ],
      "name": "supportsInterface",
      "outputs": [
        {
          "internalType": "bool",
          "name": "",
          "type": "bool"
        }
      ],
      "stateMutability": "view",
      "type": "function"
    },
    {
      "inputs": [],
      "name": "symbol",
      "outputs": [
        {
          "internalType": "string",
          "name": "",
          "type": "string"
        }
      ],
      "stateMutability": "view",
      "type": "function"
    },
    {
      "inputs": [
        {
          "internalType": "uint256",
          "name": "tokenId",
          "type": "uint256"
        }
      ],
      "name": "tokenURI",
      "outputs": [
        {
          "internalType": "string",
          "name": "",
          "type": "string"
        }
      ],
      "stateMutability": "view",
      "type": "function"
    },
    {
      "inputs": [
        {
          "internalType": "address",
          "name": "from",
          "type": "address"
        },
        {
          "internalType": "address",
          "name": "to",
          "type": "address"
        },
        {
          "internalType": "uint256",
          "name": "tokenId",
          "type": "uint256"
        }
      ],
      "name": "transferFrom",
      "outputs": [],
      "stateMutability": "nonpayable",
      "type": "function"
    }
  ],
  "bytecode": "0x60806040523480156200001157600080fd5b5060405162002dd338038062002dd3833981810160405281019062000037919062000197565b818181600090805190602001906200005192919062000075565b5080600190805190602001906200006a92919062000075565b50505050506200037a565b82805462000083906200029f565b90600052602060002090601f016020900481019282620000a75760008555620000f3565b82601f10620000c257805160ff1916838001178555620000f3565b82800160010185558215620000f3579182015b82811115620000f2578251825591602001919060010190620000d5565b5b50905062000102919062000106565b5090565b5b808211156200012157600081600090555060010162000107565b5090565b60006200013c620001368462000233565b6200020a565b9050828152602081018484840111156200015557600080fd5b6200016284828562000269565b509392505050565b600082601f8301126200017c57600080fd5b81516200018e84826020860162000125565b91505092915050565b60008060408385031215620001ab57600080fd5b600083015167ffffffffffffffff811115620001c657600080fd5b620001d4858286016200016a565b925050602083015167ffffffffffffffff811115620001f257600080fd5b62000200858286016200016a565b9150509250929050565b60006200021662000229565b9050620002248282620002d5565b919050565b6000604051905090565b600067ffffffffffffffff8211156200025157620002506200033a565b5b6200025c8262000369565b9050602081019050919050565b60005b83811015620002895780820151818401526020810190506200026c565b8381111562000299576000848401525b50505050565b60006002820490506001821680620002b857607f821691505b60208210811415620002cf57620002ce6200030b565b5b50919050565b620002e08262000369565b810181811067ffffffffffffffff821117156200030257620003016200033a565b5b80604052505050565b7f4e487b7100000000000000000000000000000000000000000000000000000000600052602260045260246000fd5b7f4e487b7100000000000000000000000000000000000000000000000000000000600052604160045260246000fd5b6000601f19601f8301169050919050565b612a49806200038a6000396000f3fe608060405234801561001057600080fd5b50600436106100ea5760003560e01c806370a082311161008c578063b88d4fde11610066578063b88d4fde1461025b578063c87b56dd14610277578063e985e9c5146102a7578063fb37e883146102d7576100ea565b806370a08231146101f157806395d89b4114610221578063a22cb4651461023f576100ea565b8063095ea7b3116100c8578063095ea7b31461016d57806323b872dd1461018957806342842e0e146101a55780636352211e146101c1576100ea565b806301ffc9a7146100ef57806306fdde031461011f578063081812fc1461013d575b600080fd5b61010960048036038101906101049190611eb6565b610307565b6040516101169190612271565b60405180910390f35b610127610368565b604051610134919061228c565b60405180910390f35b61015760048036038101906101529190611f49565b6103fa565b604051610164919061220a565b60405180910390f35b61018760048036038101906101829190611e7a565b610440565b005b6101a3600480360381019061019e9190611d74565b610558565b005b6101bf60048036038101906101ba9190611d74565b6105b8565b005b6101db60048036038101906101d69190611f49565b6105d8565b6040516101e8919061220a565b60405180910390f35b61020b60048036038101906102069190611d0f565b61065f565b604051610218919061242e565b60405180910390f35b610229610717565b604051610236919061228c565b60405180910390f35b61025960048036038101906102549190611e3e565b6107a9565b005b61027560048036038101906102709190611dc3565b6107bf565b005b610291600480360381019061028c9190611f49565b610821565b60405161029e919061228c565b60405180910390f35b6102c160048036038101906102bc9190611d38565b610934565b6040516102ce9190612271565b60405180910390f35b6102f160048036038101906102ec9190611f08565b6109c8565b6040516102fe919061242e565b60405180910390f35b6000634906490660e01b7bffffffffffffffffffffffffffffffffffffffffffffffffffffffff1916827bffffffffffffffffffffffffffffffffffffffffffffffffffffffff191614806103615750610360826109ff565b5b9050919050565b606060008054610377906125c9565b80601f01602080910402602001604051908101604052809291908181526020018280546103a3906125c9565b80156103f05780601f106103c5576101008083540402835291602001916103f0565b820191906000526020600020905b8154815290600101906020018083116103d357829003601f168201915b5050505050905090565b600061040582610ae1565b6004600083815260200190815260200160002060009054906101000a900473ffffffffffffffffffffffffffffffffffffffff169050919050565b600061044b826105d8565b90508073ffffffffffffffffffffffffffffffffffffffff168373ffffffffffffffffffffffffffffffffffffffff1614156104bc576040517f08c379a00000000000000000000000000000000000000000000000000000000081526004016104b3906123ee565b60405180910390fd5b8073ffffffffffffffffffffffffffffffffffffffff166104db610b2c565b73ffffffffffffffffffffffffffffffffffffffff16148061050a575061050981610504610b2c565b610934565b5b610549576040517f08c379a00000000000000000000000000000000000000000000000000000000081526004016105409061240e565b60405180910390fd5b6105538383610b34565b505050565b610569610563610b2c565b82610bed565b6105a8576040517f08c379a000000000000000000000000000000000000000000000000000000000815260040161059f906122ae565b60405180910390fd5b6105b3838383610c82565b505050565b6105d3838383604051806020016040528060008152506107bf565b505050565b6000806105e483610f7c565b9050600073ffffffffffffffffffffffffffffffffffffffff168173ffffffffffffffffffffffffffffffffffffffff161415610656576040517f08c379a000000000000000000000000000000000000000000000000000000000815260040161064d906123ce565b60405180910390fd5b80915050919050565b60008073ffffffffffffffffffffffffffffffffffffffff168273ffffffffffffffffffffffffffffffffffffffff1614156106d0576040517f08c379a00000000000000000000000000000000000000000000000000000000081526004016106c79061236e565b60405180910390fd5b600360008373ffffffffffffffffffffffffffffffffffffffff1673ffffffffffffffffffffffffffffffffffffffff168152602001908152602001600020549050919050565b606060018054610726906125c9565b80601f0160208091040260200160405190810160405280929190818152602001828054610752906125c9565b801561079f5780601f106107745761010080835404028352916020019161079f565b820191906000526020600020905b81548152906001019060200180831161078257829003601f168201915b5050505050905090565b6107bb6107b4610b2c565b8383610fb9565b5050565b6107d06107ca610b2c565b83610bed565b61080f576040517f08c379a0000000000000000000000000000000000000000000000000000000008152600401610806906122ae565b60405180910390fd5b61081b84848484611126565b50505050565b606061082c82610ae1565b600060066000848152602001908152602001600020805461084c906125c9565b80601f0160208091040260200160405190810160405280929190818152602001828054610878906125c9565b80156108c55780601f1061089a576101008083540402835291602001916108c5565b820191906000526020600020905b8154815290600101906020018083116108a857829003601f168201915b5050505050905060006108d6611182565b90506000815114156108ec57819250505061092f565b6000825111156109215780826040516020016109099291906121e6565b6040516020818303038152906040529250505061092f565b61092a84611199565b925050505b919050565b6000600560008473ffffffffffffffffffffffffffffffffffffffff1673ffffffffffffffffffffffffffffffffffffffff16815260200190815260200160002060008373ffffffffffffffffffffffffffffffffffffffff1673ffffffffffffffffffffffffffffffffffffffff16815260200190815260200160002060009054906101000a900460ff16905092915050565b60006109d46007611201565b60006109e06007611217565b90506109ec3382611225565b6109f68184611243565b80915050919050565b60007f80ac58cd000000000000000000000000000000000000000000000000000000007bffffffffffffffffffffffffffffffffffffffffffffffffffffffff1916827bffffffffffffffffffffffffffffffffffffffffffffffffffffffff19161480610aca57507f5b5e139f000000000000000000000000000000000000000000000000000000007bffffffffffffffffffffffffffffffffffffffffffffffffffffffff1916827bffffffffffffffffffffffffffffffffffffffffffffffffffffffff1916145b80610ada5750610ad9826112ee565b5b9050919050565b610aea81611358565b610b29576040517f08c379a0000000000000000000000000000000000000000000000000000000008152600401610b20906123ce565b60405180910390fd5b50565b600033905090565b816004600083815260200190815260200160002060006101000a81548173ffffffffffffffffffffffffffffffffffffffff021916908373ffffffffffffffffffffffffffffffffffffffff160217905550808273ffffffffffffffffffffffffffffffffffffffff16610ba7836105d8565b73ffffffffffffffffffffffffffffffffffffffff167f8c5be1e5ebec7d5bd14f71427d1e84f3dd0314c0f7b2291e5b200ac8c7c3b92560405160405180910390a45050565b600080610bf9836105d8565b90508073ffffffffffffffffffffffffffffffffffffffff168473ffffffffffffffffffffffffffffffffffffffff161480610c3b5750610c3a8185610934565b5b80610c7957508373ffffffffffffffffffffffffffffffffffffffff16610c61846103fa565b73ffffffffffffffffffffffffffffffffffffffff16145b91505092915050565b8273ffffffffffffffffffffffffffffffffffffffff16610ca2826105d8565b73ffffffffffffffffffffffffffffffffffffffff1614610cf8576040517f08c379a0000000000000000000000000000000000000000000000000000000008152600401610cef906122ee565b60405180910390fd5b600073ffffffffffffffffffffffffffffffffffffffff168273ffffffffffffffffffffffffffffffffffffffff161415610d68576040517f08c379a0000000000000000000000000000000000000000000000000000000008152600401610d5f9061232e565b60405180910390fd5b610d758383836001611399565b8273ffffffffffffffffffffffffffffffffffffffff16610d95826105d8565b73ffffffffffffffffffffffffffffffffffffffff1614610deb576040517f08c379a0000000000000000000000000000000000000000000000000000000008152600401610de2906122ee565b60405180910390fd5b6004600082815260200190815260200160002060006101000a81549073ffffffffffffffffffffffffffffffffffffffff02191690556001600360008573ffffffffffffffffffffffffffffffffffffffff1673ffffffffffffffffffffffffffffffffffffffff168152602001908152602001600020600082825403925050819055506001600360008473ffffffffffffffffffffffffffffffffffffffff1673ffffffffffffffffffffffffffffffffffffffff16815260200190815260200160002060008282540192505081905550816002600083815260200190815260200160002060006101000a81548173ffffffffffffffffffffffffffffffffffffffff021916908373ffffffffffffffffffffffffffffffffffffffff160217905550808273ffffffffffffffffffffffffffffffffffffffff168473ffffffffffffffffffffffffffffffffffffffff167fddf252ad1be2c89b69c2b068fc378daa952ba7f163c4a11628f55a4df523b3ef60405160405180910390a4610f77838383600161139f565b505050565b60006002600083815260200190815260200160002060009054906101000a900473ffffffffffffffffffffffffffffffffffffffff169050919050565b8173ffffffffffffffffffffffffffffffffffffffff168373ffffffffffffffffffffffffffffffffffffffff161415611028576040517f08c379a000000000000000000000000000000000000000000000000000000000815260040161101f9061234e565b60405180910390fd5b80600560008573ffffffffffffffffffffffffffffffffffffffff1673ffffffffffffffffffffffffffffffffffffffff16815260200190815260200160002060008473ffffffffffffffffffffffffffffffffffffffff1673ffffffffffffffffffffffffffffffffffffffff16815260200190815260200160002060006101000a81548160ff0219169083151502179055508173ffffffffffffffffffffffffffffffffffffffff168373ffffffffffffffffffffffffffffffffffffffff167f17307eab39ab6107e8899845ad3d59bd9653f200f220920489ca2b5937696c31836040516111199190612271565b60405180910390a3505050565b611131848484610c82565b61113d848484846113a5565b61117c576040517f08c379a0000000000000000000000000000000000000000000000000000000008152600401611173906122ce565b60405180910390fd5b50505050565b606060405180602001604052806000815250905090565b60606111a482610ae1565b60006111ae611182565b905060008151116111ce57604051806020016040528060008152506111f9565b806111d88461153c565b6040516020016111e99291906121e6565b6040516020818303038152906040525b915050919050565b6001816000016000828254019250508190555050565b600081600001549050919050565b61123f828260405180602001604052806000815250611660565b5050565b61124c82611358565b61128b576040517f08c379a00000000000000000000000000000000000000000000000000000000081526004016112829061238e565b60405180910390fd5b806006600084815260200190815260200160002090805190602001906112b2929190611b33565b507ff8e1a15aba9398e019f0b49df1a4fde98ee17ae345cb5f6b5e2c27f5033e8ce7826040516112e2919061242e565b60405180910390a15050565b60007f01ffc9a7000000000000000000000000000000000000000000000000000000007bffffffffffffffffffffffffffffffffffffffffffffffffffffffff1916827bffffffffffffffffffffffffffffffffffffffffffffffffffffffff1916149050919050565b60008073ffffffffffffffffffffffffffffffffffffffff1661137a83610f7c565b73ffffffffffffffffffffffffffffffffffffffff1614159050919050565b50505050565b50505050565b60006113c68473ffffffffffffffffffffffffffffffffffffffff166116bb565b1561152f578373ffffffffffffffffffffffffffffffffffffffff1663150b7a026113ef610b2c565b8786866040518563ffffffff1660e01b81526004016114119493929190612225565b602060405180830381600087803b15801561142b57600080fd5b505af192505050801561145c57506040513d601f19601f820116820180604052508101906114599190611edf565b60015b6114df573d806000811461148c576040519150601f19603f3d011682016040523d82523d6000602084013e611491565b606091505b506000815114156114d7576040517f08c379a00000000000000000000000000000000000000000000000000000000081526004016114ce906122ce565b60405180910390fd5b805181602001fd5b63150b7a0260e01b7bffffffffffffffffffffffffffffffffffffffffffffffffffffffff1916817bffffffffffffffffffffffffffffffffffffffffffffffffffffffff191614915050611534565b600190505b949350505050565b60606000600161154b846116de565b01905060008167ffffffffffffffff811115611590577f4e487b7100000000000000000000000000000000000000000000000000000000600052604160045260246000fd5b6040519080825280601f01601f1916602001820160405280156115c25781602001600182028036833780820191505090505b509050600082602001820190505b600115611655578080600190039150507f3031323334353637383961626364656600000000000000000000000000000000600a86061a8153600a858161163f577f4e487b7100000000000000000000000000000000000000000000000000000000600052601260045260246000fd5b049450600085141561165057611655565b6115d0565b819350505050919050565b61166a8383611915565b61167760008484846113a5565b6116b6576040517f08c379a00000000000000000000000000000000000000000000000000000000081526004016116ad906122ce565b60405180910390fd5b505050565b6000808273ffffffffffffffffffffffffffffffffffffffff163b119050919050565b600080600090507a184f03e93ff9f4daa797ed6e38ed64bf6a1f0100000000000000008310611762577a184f03e93ff9f4daa797ed6e38ed64bf6a1f0100000000000000008381611758577f4e487b7100000000000000000000000000000000000000000000000000000000600052601260045260246000fd5b0492506040810190505b6d04ee2d6d415b85acef810000000083106117c5576d04ee2d6d415b85acef810000000083816117bb577f4e487b7100000000000000000000000000000000000000000000000000000000600052601260045260246000fd5b0492506020810190505b662386f26fc10000831061181a57662386f26fc100008381611810577f4e487b7100000000000000000000000000000000000000000000000000000000600052601260045260246000fd5b0492506010810190505b6305f5e1008310611869576305f5e100838161185f577f4e487b7100000000000000000000000000000000000000000000000000000000600052601260045260246000fd5b0492506008810190505b61271083106118b45761271083816118aa577f4e487b7100000000000000000000000000000000000000000000000000000000600052601260045260246000fd5b0492506004810190505b606483106118fd57606483816118f3577f4e487b7100000000000000000000000000000000000000000000000000000000600052601260045260246000fd5b0492506002810190505b600a831061190c576001810190505b80915050919050565b600073ffffffffffffffffffffffffffffffffffffffff168273ffffffffffffffffffffffffffffffffffffffff161415611985576040517f08c379a000000000000000000000000000000000000000000000000000000000815260040161197c906123ae565b60405180910390fd5b61198e81611358565b156119ce576040517f08c379a00000000000000000000000000000000000000000000000000000000081526004016119c59061230e565b60405180910390fd5b6119dc600083836001611399565b6119e581611358565b15611a25576040517f08c379a0000000000000000000000000000000000000000000000000000000008152600401611a1c9061230e565b60405180910390fd5b6001600360008473ffffffffffffffffffffffffffffffffffffffff1673ffffffffffffffffffffffffffffffffffffffff16815260200190815260200160002060008282540192505081905550816002600083815260200190815260200160002060006101000a81548173ffffffffffffffffffffffffffffffffffffffff021916908373ffffffffffffffffffffffffffffffffffffffff160217905550808273ffffffffffffffffffffffffffffffffffffffff16600073ffffffffffffffffffffffffffffffffffffffff167fddf252ad1be2c89b69c2b068fc378daa952ba7f163c4a11628f55a4df523b3ef60405160405180910390a4611b2f60008383600161139f565b5050565b828054611b3f906125c9565b90600052602060002090601f016020900481019282611b615760008555611ba8565b82601f10611b7a57805160ff1916838001178555611ba8565b82800160010185558215611ba8579182015b82811115611ba7578251825591602001919060010190611b8c565b5b509050611bb59190611bb9565b5090565b5b80821115611bd2576000816000905550600101611bba565b5090565b6000611be9611be48461246e565b612449565b905082815260208101848484011115611c0157600080fd5b611c0c848285612587565b509392505050565b6000611c27611c228461249f565b612449565b905082815260208101848484011115611c3f57600080fd5b611c4a848285612587565b509392505050565b600081359050611c61816129b7565b92915050565b600081359050611c76816129ce565b92915050565b600081359050611c8b816129e5565b92915050565b600081519050611ca0816129e5565b92915050565b600082601f830112611cb757600080fd5b8135611cc7848260208601611bd6565b91505092915050565b600082601f830112611ce157600080fd5b8135611cf1848260208601611c14565b91505092915050565b600081359050611d09816129fc565b92915050565b600060208284031215611d2157600080fd5b6000611d2f84828501611c52565b91505092915050565b60008060408385031215611d4b57600080fd5b6000611d5985828601611c52565b9250506020611d6a85828601611c52565b9150509250929050565b600080600060608486031215611d8957600080fd5b6000611d9786828701611c52565b9350506020611da886828701611c52565b9250506040611db986828701611cfa565b9150509250925092565b60008060008060808587031215611dd957600080fd5b6000611de787828801611c52565b9450506020611df887828801611c52565b9350506040611e0987828801611cfa565b925050606085013567ffffffffffffffff811115611e2657600080fd5b611e3287828801611ca6565b91505092959194509250565b60008060408385031215611e5157600080fd5b6000611e5f85828601611c52565b9250506020611e7085828601611c67565b9150509250929050565b60008060408385031215611e8d57600080fd5b6000611e9b85828601611c52565b9250506020611eac85828601611cfa565b9150509250929050565b600060208284031215611ec857600080fd5b6000611ed684828501611c7c565b91505092915050565b600060208284031215611ef157600080fd5b6000611eff84828501611c91565b91505092915050565b600060208284031215611f1a57600080fd5b600082013567ffffffffffffffff811115611f3457600080fd5b611f4084828501611cd0565b91505092915050565b600060208284031215611f5b57600080fd5b6000611f6984828501611cfa565b91505092915050565b611f7b81612513565b82525050565b611f8a81612525565b82525050565b6000611f9b826124d0565b611fa581856124e6565b9350611fb5818560208601612596565b611fbe8161268a565b840191505092915050565b6000611fd4826124db565b611fde81856124f7565b9350611fee818560208601612596565b611ff78161268a565b840191505092915050565b600061200d826124db565b6120178185612508565b9350612027818560208601612596565b80840191505092915050565b6000612040602d836124f7565b915061204b8261269b565b604082019050919050565b60006120636032836124f7565b915061206e826126ea565b604082019050919050565b60006120866025836124f7565b915061209182612739565b604082019050919050565b60006120a9601c836124f7565b91506120b482612788565b602082019050919050565b60006120cc6024836124f7565b91506120d7826127b1565b604082019050919050565b60006120ef6019836124f7565b91506120fa82612800565b602082019050919050565b60006121126029836124f7565b915061211d82612829565b604082019050919050565b6000612135602e836124f7565b915061214082612878565b604082019050919050565b60006121586020836124f7565b9150612163826128c7565b602082019050919050565b600061217b6018836124f7565b9150612186826128f0565b602082019050919050565b600061219e6021836124f7565b91506121a982612919565b604082019050919050565b60006121c1603d836124f7565b91506121cc82612968565b604082019050919050565b6121e08161257d565b82525050565b60006121f28285612002565b91506121fe8284612002565b91508190509392505050565b600060208201905061221f6000830184611f72565b92915050565b600060808201905061223a6000830187611f72565b6122476020830186611f72565b61225460408301856121d7565b81810360608301526122668184611f90565b905095945050505050565b60006020820190506122866000830184611f81565b92915050565b600060208201905081810360008301526122a68184611fc9565b905092915050565b600060208201905081810360008301526122c781612033565b9050919050565b600060208201905081810360008301526122e781612056565b9050919050565b6000602082019050818103600083015261230781612079565b9050919050565b600060208201905081810360008301526123278161209c565b9050919050565b60006020820190508181036000830152612347816120bf565b9050919050565b60006020820190508181036000830152612367816120e2565b9050919050565b6000602082019050818103600083015261238781612105565b9050919050565b600060208201905081810360008301526123a781612128565b9050919050565b600060208201905081810360008301526123c78161214b565b9050919050565b600060208201905081810360008301526123e78161216e565b9050919050565b6000602082019050818103600083015261240781612191565b9050919050565b60006020820190508181036000830152612427816121b4565b9050919050565b600060208201905061244360008301846121d7565b92915050565b6000612453612464565b905061245f82826125fb565b919050565b6000604051905090565b600067ffffffffffffffff8211156124895761248861265b565b5b6124928261268a565b9050602081019050919050565b600067ffffffffffffffff8211156124ba576124b961265b565b5b6124c38261268a565b9050602081019050919050565b600081519050919050565b600081519050919050565b600082825260208201905092915050565b600082825260208201905092915050565b600081905092915050565b600061251e8261255d565b9050919050565b60008115159050919050565b60007fffffffff0000000000000000000000000000000000000000000000000000000082169050919050565b600073ffffffffffffffffffffffffffffffffffffffff82169050919050565b6000819050919050565b82818337600083830152505050565b60005b838110156125b4578082015181840152602081019050612599565b838111156125c3576000848401525b50505050565b600060028204905060018216806125e157607f821691505b602082108114156125f5576125f461262c565b5b50919050565b6126048261268a565b810181811067ffffffffffffffff821117156126235761262261265b565b5b80604052505050565b7f4e487b7100000000000000000000000000000000000000000000000000000000600052602260045260246000fd5b7f4e487b7100000000000000000000000000000000000000000000000000000000600052604160045260246000fd5b6000601f19601f8301169050919050565b7f4552433732313a2063616c6c6572206973206e6f7420746f6b656e206f776e6560008201527f72206f7220617070726f76656400000000000000000000000000000000000000602082015250565b7f4552433732313a207472616e7366657220746f206e6f6e20455243373231526560008201527f63656976657220696d706c656d656e7465720000000000000000000000000000602082015250565b7f4552433732313a207472616e736665722066726f6d20696e636f72726563742060008201527f6f776e6572000000000000000000000000000000000000000000000000000000602082015250565b7f4552433732313a20746f6b656e20616c7265616479206d696e74656400000000600082015250565b7f4552433732313a207472616e7366657220746f20746865207a65726f2061646460008201527f7265737300000000000000000000000000000000000000000000000000000000602082015250565b7f4552433732313a20617070726f766520746f2063616c6c657200000000000000600082015250565b7f4552433732313a2061646472657373207a65726f206973206e6f74206120766160008201527f6c6964206f776e65720000000000000000000000000000000000000000000000602082015250565b7f45524337323155524953746f726167653a2055524920736574206f66206e6f6e60008201527f6578697374656e7420746f6b656e000000000000000000000000000000000000602082015250565b7f4552433732313a206d696e7420746f20746865207a65726f2061646472657373600082015250565b7f4552433732313a20696e76616c696420746f6b656e2049440000000000000000600082015250565b7f4552433732313a20617070726f76616c20746f2063757272656e74206f776e6560008201527f7200000000000000000000000000000000000000000000000000000000000000602082015250565b7f4552433732313a20617070726f76652063616c6c6572206973206e6f7420746f60008201527f6b656e206f776e6572206f7220617070726f76656420666f7220616c6c000000602082015250565b6129c081612513565b81146129cb57600080fd5b50565b6129d781612525565b81146129e257600080fd5b50565b6129ee81612531565b81146129f957600080fd5b50565b612a058161257d565b8114612a1057600080fd5b5056fea26469706673582212205c440d7cfa2843ee27de823a96e462e314f6a05d38c771529cd8676abe2a65d364736f6c63430008040033",
  "linkReferences": {},
  "deployedLinkReferences": {}
}